:020000040800F2
:1000000000800120C50700088D0700088F07000841
:1000100091070008930700089507000800000000FA
:10002000000000000000000000000000970700082A
:1000300099070008000000009B0700089D070008C2
:10004000150800081508000815080008150800081C
:10005000150800081508000815080008150800080C
:1000600015080008150800081508000815080008FC
:1000700015080008150800081508000815080008EC
:100080001508000815080008150800080000000001
:10009000000000000000000000000000150800083B
:1000A00015080008150800081508000815080008BC
:1000B00015080008150800081508000815080008AC
:1000C000150800081508000815080008150800089C
:1000D00015080008150800081508000800000000B1
:1000E000A507000815080008150800080000000012
:1000F00000000000000000000000000015080008DB
:100100000000000015080008150800081508000880
:1001100000000000000000000000000000000000DF
:10012000150800081508000815080008150800083B
:10013000150800080000000000000000000000009A
:10014000000000000000000000000000150800088A
:10015000150800081508000815080008150800080B
:100160001508000815080008000000000000000045
:10017000000000000000000000000000000000007F
:10018000000000001508000800000000000000004A
:040190001508000846
:1001940010B5054C237833B9044B13B10448AFF3BD
:1001A40000800123237010BD0C000020000000001B
:1001B400A813000808B5034B1BB103490348AFF368
:1001C400008008BD0000000010000020A8130008F3
:1001D40053B94AB9002908BF00281CBF4FF0FF31AA
:1001E4004FF0FF3000F06AB9ADF1080C6DE904CEB0
:1001F40000F006F8DDF804E0DDE9022304B07047FE
:100204002DE9F047089D0C46002B4ED194468C45B1
:100214008646B2FA82F262D94AB1C2F12003914011
:1002240020FA03F30CFA02FC194300FA02FE4FEA27
:100234001C471FFA8CF6B1FBF7F44FEA1E4307FB89
:10024400141143EA014304FB06F199420AD91CEB59
:10025400030304F1FF3080F01281994240F20F81D0
:10026400023C6344591A1FFA8EF3B1FBF7F007FB03
:10027400101143EA014300FB06F69E420AD91CEB27
:10028400030300F1FF3180F0FC809E4240F2F980CC
:10029400634402389B1B40EA044000211DB1D34053
:1002A4000022C5E90032BDE8F0878B4205D90DB1C3
:1002B400C5E9000100210846F5E7B3FA83F10029F6
:1002C40046D1A34202D39042C0F0F080861A64EB78
:1002D40003030120002DE6D0C5E90063E3E7002A0B
:1002E40040F09080A1EB0C044FEA1C481FFA8CF7F5
:1002F4000121B4FBF8F64FEA1E4308FB164443EA17
:10030400044307FB06F0984208D91CEB030306F1EB
:10031400FF3402D2984200F2CD8026461C1A1FFAFE
:100324008EF3B4FBF8F008FB104443EA044300FBEB
:1003340007F79F4208D91CEB030300F1FF3402D2F4
:100344009F4200F2B0802046DB1B40EA0640A5E74E
:10035400C1F120068B4022FA06F71F4320FA06FC5F
:1003640004FA01F343EA0C03F44000FA01F8380CF0
:100374004FEA1349B4FBF0FE1FFA87FC00FB1E444E
:1003840049EA04440EFB0CF9A14502FA01F20AD928
:100394003C190EF1FF3A80F08480A14540F281803F
:1003A400AEF1020E3C44A4EB09041FFA83F9B4FB3A
:1003B400F0F300FB134449EA044403FB0CFCA4459A
:1003C40007D93C1903F1FF3067D2A44565D9023B34
:1003D4003C4443EA0E40A0FB0293A4EB0C049C4271
:1003E400CE469C4651D34ED055B1B8EB0E0364EBC8
:1003F4000C0404FA06F6CB401E43CC40C5E9006465
:10040400002150E7C2F1200320FA03F10CFA02FCA8
:1004140024FA03F394400C434FEA1C4800FA02FE0A
:100424001FFA8CF7B3FBF8F008FB1031230C43EAF6
:10043400014300FB07F1994208D91CEB030300F1C7
:10044400FF362CD299422AD9023863445B1AA4B2EB
:10045400B3FBF8F108FB113344EA034401FB07F34F
:10046400A34208D91CEB040401F1FF3613D2A342C2
:1004740011D902396444E41A41EA004139E70446D7
:10048400F0E6084606E7C845AED2B9EB020E63EBC8
:10049400070C0138A8E73146EDE7034699E73046F3
:1004A400D4E7D6467FE7634402384DE70646234641
:1004B40008460FE7023E634430E700BF704700BFC1
:1004C40002440346934200D1704703F8011BF9E745
:1004D40070B50D4D0D4C641BA4100026A64209D125
:1004E4000B4D0C4C00F05EFF641BA4100026A642CA
:1004F40005D170BD55F8043B98470136EEE755F831
:10050400043B98470136F2E7E0130008E0130008C3
:10051400E0130008E413000870B58AB000240594C1
:1005240006940794089409940194264B1A6B42F09C
:1005340004021A631A6B02F004020192019A0294F3
:100544001A6B42F080021A631A6B02F08002029264
:10055400029A03941A6B42F001021A631A6B02F0B6
:1005640001020392039A04941A6B42F002021A6382
:100574001B6B03F002030493049B134D22462021BA
:10058400284600F0A7FA4FF4005305934FF488135C
:1005940006930126079605A90C4800F0B7F9202315
:1005A400059306960794089405A9284600F0AEF929
:1005B40022462146282000F081F9282000F08EF9F7
:1005C4000AB070BD0038024000000240000802403A
:1005D400B0F5005F00D0704708B52021014800F055
:1005E4007FFA08BD0000024072B6FEE708B50A486B
:1005F4000A4B03604FF4E133436000238360C3601C
:1006040003610C2242618361C36100F049FE00B9B9
:1006140008BDFFF7E9FF00BF2800002000440040A8
:1006240000B595B03022002108A8FFF749FF002348
:100634000393049305930693079301931F4A116C44
:1006440041F080511164126C02F080520192019ABF
:1006540002931B490A6822F4404242F400420A60B1
:100664000A6802F440420292029A0221089101228D
:100674000B9210220C920E910F9310924FF4A873C8
:100684001193042312930723139308A800F040FA4C
:1006940080B90F23039302210491002305934FF49F
:1006A40080520692079303A800F09CFC20B915B071
:1006B4005DF804FBFFF798FFFFF796FF0038024050
:1006C4000070004008B500F041FEFFF7A9FFFFF7F6
:1006D40023FFFFF78BFF00BFFDE7000000B583B0E9
:1006E400002100910C4B5A6C42F480425A645A6CBB
:1006F40002F480420092009A01911A6C42F08052F6
:100704001A641B6C03F080530193019B072000F0D3
:10071400C3F803B05DF804FB0038024000B589B0AB
:100724000023039304930593069307930268144BE1
:100734009A4202D009B05DF804FB0021019103F54F
:10074400FA331A6C42F400321A641A6C02F400325E
:100754000192019A02911A6B42F001021A631B6B17
:1007640003F001030293029B0C23039302230493DB
:100774000723079303A9034800F0C8F8DAE700BF8A
:100784000044004000000240FEE7FEE7FEE7FEE70B
:10079400FEE770477047704708B500F0F1FD08BDEB
:1007A40008B54FF4005000F0A5F908BD034AD2F88B
:1007B400883043F47003C2F88830704700ED00E0DD
:1007C400DFF834D0FFF7F2FF0C480D490D4A00233F
:1007D40002E0D458C4500433C4188C42F9D30A4AF2
:1007E4000A4C002301E013600432A242FBD3FFF75A
:1007F4006FFEFFF767FF70470080012000000020B4
:100804000C000020E81300080C00002074000020F5
:10081400FEE70000002807DB00F01F024009012367
:100824009340024A42F82030704700BF00E100E0E4
:10083400002808DB0901C9B200F1604000F56140FD
:1008440080F80013704700F00F000901C9B2014B92
:100854001954704714ED00E000B500F00700C0F132
:10086400070CBCF1040F28BF4FF0040C031D062B2A
:100874000FD9C31E4FF0FF3E0EFA0CF021EA00011F
:1008840099400EFA03FE22EA0E0241EA02005DF8E4
:1008940004FB0023EEE70000074AD36823F4E06377
:1008A4001B041B0C000200F4E060034343F0BF632D
:1008B40043F40033D360704700ED00E010B5044604
:1008C400054BD868C0F30220FFF7C6FF0146204657
:1008D400FFF7AEFF10BD00BF00ED00E008B5FFF765
:1008E40099FF08BD0138B0F1807F0BD24FF0E023AF
:1008F4005861054AF02182F82310002098610722EC
:100904001A6170470120704700ED00E000230F2BAF
:1009140000F2D78070B582B065E085684FEA430E77
:10092400032404FA0EF425EA0405CC6804FA0EF450
:100934002C438460446824EA02044A68C2F3001227
:100944009A40224342605CE0DC08083450F82420DA
:1009540003F00705AD004FF00F0E0EFA05FE22EA74
:100964000E0E0A69AA4042EA0E0240F824205CE016
:10097400042200E0002202FA0EF22A430234514D0E
:1009840045F82420504A94686FEA0C0224EA0C05C6
:100994004E6816F4801F01D04CEA04054A4CA56049
:1009A400E46802EA04054E6816F4001F01D04CEA1C
:1009B4000405454CE560646802EA04054E6816F4D3
:1009C400003F01D04CEA04053F4C65602468224096
:1009D4004D6815F4803F01D04CEA04023A4C226081
:1009E40001330F2B6BD801229A400C6804EA020CE5
:1009F40032EA0404F4D14C6804F00304013C012CF1
:100A04008BD94A6802F00302032A09D0C4685D0046
:100A14000322AA4024EA02048A68AA402243C2604C
:100A24004A6802F00302022A8ED004684FEA430E99
:100A3400032202FA0EF224EA02044A6802F00302D4
:100A440002FA0EF2224302604A6812F4403FC7D011
:100A5400002201921D4A546C44F480445464526C44
:100A640002F480420192019A9C08A51C154A52F88E
:100A7400255003F0030E4FEA8E0E0F2202FA0EF2F7
:100A840025EA0205124A90423FF474AF02F58062EF
:100A940090420ED002F5806290420CD002F5806242
:100AA40090420AD002F5806290423FF461AF07227F
:100AB40061E701225FE702225DE703225BE702B000
:100AC40070BD704700380140003C014000380240CE
:100AD400000002400AB181617047090481617047D6
:100AE400436901EA030221EA030141EA0241816107
:100AF4007047000008B5054B5B69034200D108BD8F
:100B0400024B5861FFF764FDF9E700BF003C014068
:100B1400002800F0E08170B582B00446036813F049
:100B2400010F3BD09F4B9B6803F00C03042B2CD08C
:100B34009C4B9B6803F00C03082B21D06368B3F52E
:100B4400803F4FD0B3F5A02F52D0964B1A6822F4B1
:100B540080321A601A6822F480221A606368002BBB
:100B640050D000F019FC05468E4B1B6813F4003F6F
:100B740014D100F011FC401B6428F5D90320B1E125
:100B8400884B5B6813F4800FD8D0864B1B6813F432
:100B9400003F03D06368002B00F09F81236813F0AB
:100BA400020F54D07F4B9B6813F00C0F3ED07D4B4B
:100BB4009B6803F00C03082B33D0E368002B68D048
:100BC400794B01221A6000F0E7FB0546754B1B6860
:100BD40013F0020F54D100F0DFFB401B0228F5D9BB
:100BE40003207FE16F4A136843F480331360B5E751
:100BF4006C4B1A6842F480221A601A6842F48032FC
:100C04001A60ABE700F0C8FB0546664B1B6813F49B
:100C1400003FC3D000F0C0FB401B6428F5D903207B
:100C240060E1604B5B6813F4800FC6D15D4B1B68B9
:100C340013F0020F03D0E368012B40F05081594AAE
:100C4400136823F0F803216943EAC103136023689E
:100C540013F0080F42D063696BB3534B0122C3F8FE
:100C6400802E00F099FB05464E4B5B6F13F0020F8C
:100C740034D100F091FB401B0228F5D9032031E167
:100C8400484A136823F0F803216943EAC103136057
:100C9400DDE7454B00221A6000F07EFB0546414B20
:100CA4001B6813F0020FD2D000F076FB401B022821
:100CB400F5D9032016E13C4B0022C3F8802E00F046
:100CC4006BFB0546374B5B6F13F0020F06D000F049
:100CD40063FB401B0228F5D9032003E1236813F0CA
:100CE400040F77D02F4B1B6C13F0805F33D100239C
:100CF40001932C4B1A6C42F080521A641B6C03F063
:100D040080530193019B0125284B1B6813F4807FBA
:100D140023D0A368012B34D0052B38D0214B1A6F74
:100D240022F001021A671A6F22F004021A67A368FC
:100D3400002B3DD000F030FB06461A4B1B6F13F01E
:100D4400020F46D100F028FB801B41F28833984201
:100D5400F3D90320C6E00025D6E7144A136843F408
:100D64008073136000F018FB0646104B1B6813F4E5
:100D7400807FCED100F010FB801B0228F5D9032020
:100D8400B0E0084A136F43F001031367CFE7054B44
:100D94001A6F42F004021A671A6F42F001021A67CE
:100DA400C5E700BF00380240000047420070004021
:100DB40000F0F2FA0646524B1B6F13F0020F08D0F4
:100DC40000F0EAFA801B41F288339842F3D90320F9
:100DD40088E0EDB9A369002B00F08380484A92684B
:100DE40002F00C02082A51D0022B17D0454B0022E6
:100DF4001A6600F0D1FA0446414B1B6813F0007FD9
:100E040042D000F0C9FA001B0228F5D9032069E09A
:100E14003B4A136C23F080531364DBE7394B002205
:100E24001A6600F0B9FA0546354B1B6813F0007FCB
:100E340006D000F0B1FA401B0228F5D9032051E096
:100E4400E369226A1343626A43EA8213A26A52087C
:100E5400013A43EA0243E26A43EA0263284A5360DE
:100E6400284B01221A6600F097FA0446244B1B68AB
:100E740013F0007F06D100F08FFA001B0228F5D989
:100E840003202FE000202DE000202BE0012B2BD0AD
:100E94001B4B5B6803F48001E269914226D103F0A5
:100EA4003F02216A8A4223D1616A47F6C0721A401E
:100EB400B2EB811F1ED103F44031A26A5208013AF9
:100EC400B1EB024F18D103F07063E26AB3EB026F27
:100ED40014D1002006E001207047012002E0012027
:100EE40000E0002002B070BD0120FBE70120F9E71B
:100EF4000120F7E70120F5E70120F3E70120F1E7FE
:100F0400003802400000474208B5334B9B6803F0A9
:100F14000C03042B5BD0082B5BD12F4B5A6802F0D7
:100F24003F025B6813F4800F2CD02B4B5868C0F33E
:100F340088104FEA401CBCEB000C6EEB0E0E4FEA1F
:100F44008E1343EA9C634FEA8C11B1EB0C0163EB03
:100F54000E03DB0043EA5173C90011EB000C43F1AB
:100F64000003590200234FEA4C2041EADC51FFF709
:100F74002FF9194B5B68C3F3014301335B00B0FBEA
:100F8400F3F027E0144B5868C0F388104FEA401C74
:100F9400BCEB000C6EEB0E0E4FEA8E1343EA9C631F
:100FA4004FEA8C11B1EB0C0163EB0E03DB0043EA57
:100FB4005173C90011EB000C43F1000399020023A3
:100FC4004FEA8C2041EA9C51FFF702F9D1E703482C
:100FD40000E0034808BD00BF0038024000127A0058
:100FE4000024F400002800F09B8070B50D460446F0
:100FF4004F4B1B6803F007038B4208D2CBB24C4A19
:101004001370136803F007038B4240F08B8023684E
:1010140013F0020F17D013F0040F04D0454A93685D
:1010240043F4E0539360236813F0080F04D0414A5B
:10103400936843F4604393603E4A936823F0F0035B
:10104400A1680B439360236813F0010F32D06368E7
:10105400012B21D09A1E012A25D9364A126812F092
:10106400020F61D033498A6822F0030213438B6074
:1010740000F092F906462F4B9B6803F00C0362685C
:10108400B3EB820F16D000F087F9801B41F288334E
:101094009842F0D9032042E0264A126812F4003F35
:1010A400E0D101203BE0234A126812F0007FD9D13D
:1010B400012034E01E4B1B6803F00703AB4207D941
:1010C400EAB21B4B1A701B6803F00703AB422DD125
:1010D400236813F0040F06D0164A936823F4E053F0
:1010E400E1680B439360236813F0080F07D0114A9B
:1010F400936823F46043216943EAC1039360FFF7D3
:1011040003FF0C4B9B68C3F303130B4AD35CD84017
:101114000A4B18600A4B186800F0F2F8002070BD02
:10112400012070470120FAE70120F8E70120F6E7E3
:10113400003C024000380240C813000800000020B0
:1011440008000020014B1868704700BF0000002011
:1011540008B5FFF7F7FF044B9B68C3F38223034AE8
:10116400D35CD84008BD00BF00380240C01300085B
:1011740008B5FFF7E7FF044B9B68C3F34233034A08
:10118400D35CD84008BD00BF00380240C01300083B
:1011940010B504460268136923F44053C1680B4335
:1011A4001361836802691A4343691A43C3691A4382
:1011B4000168CB6823F4164323F00C031343CB607C
:1011C4000268536923F4407381690B4353610368D4
:1011D400314A934206D002F58062934202D0FFF76F
:1011E400B7FF01E0FFF7C4FFE369B3F5004F29D06F
:1011F4000021031849411B1841F10001C90041EACB
:101204005371DB00181863684FEA83024FEA937343
:1012140041F10001FEF7DCFF204AA2FB003149093D
:10122400642303FB11031B013233A2FB03235B0979
:1012340003F0F00202EB011203F00F0321681344E0
:101244008B6010BD0023021843EB0301121841F117
:101254000001C90041EA5271D200101841F10001A5
:10126400626892185B41FEF7B3FF0C4AA2FB00319F
:101274004909642303FB1103DB003233A2FB03237C
:101284005B095A0002F4F87202EB011203F007033F
:10129400216813448B60D4E7001001401F85EB5193
:1012A40060B310B5044690F8413013B3242384F896
:1012B40041302268D36823F40053D3602046FFF7FB
:1012C40067FF2268136923F490431361226853690A
:1012D40023F02A0353612268D36843F40053D36094
:1012E40000206064202384F8413084F84230606335
:1012F40010BD80F84030FFF711FAD7E7012070479E
:1013040010B504460E4B1A784FF47A73B3FBF2F31C
:101314000C4A1068B0FBF3F0FFF7E4FA68B90F2C3D
:1013240001D901200AE0002221464FF0FF30FFF7E7
:10133400C5FA054B1C60002000E0012010BD00BF71
:1013440004000020000000200800002008B50B4B1A
:101354001A6842F400721A601A6842F480621A60D1
:101364001A6842F480721A600320FFF795FA00208D
:10137400FFF7C6FFFFF7B2F9002008BD003C0240AA
:10138400034A1168034B1B780B441360704700BF7A
:101394007000002004000020014B1868704700BF53
:1013A40070000020F8B500BFF8BC08BC9E4670472A
:0C13B400F8B500BFF8BC08BC9E467047AE
:1013C0000000000001020304000000000000000013
:0813D0000102030406070809ED
:0813D8002CEEFF7F0100000074
:0413E000B901000847
:0413E4009501000867
:0C13E8000024F4000100000010000000D0
:04000005080007C523
:00000001FF
